:100E850002160000030900000002110000020E0016
:010E9500005C
:10064300750C00750D64752400752564751C0AE42A
:10065300F52CF52D752E32F51DF51E75081E751535
:100663000FF52AF52B751F01F519F510F518F5137C
:10067300751401120C7B120D6F7F017E20120F5136
:100683008F097F027E20120F518F0A7FC87E0012CE
:100693000F17120BDD7C007D0A1203768E118F1269
:1006A300120C2C7C007D0A1203768E0E8F0FE5143C
:1006B3006401451360030207A0E5187050E510704C
:1006C3004CE51575F00AA4FFAEF0D3E50F9FE50ED8
:1006D3009E402CD3E50F9512E50E95114021751F11
:1006E30001E50F9FFFE50E9EFE7C007D031203765E
:1006F3008F1CC3EF945A748094804003751C5AC3B3
:10070300E50F9512E50E95115003E4F51FE5087505
:10071300F00AA4FFAEF0D3E50F9FE50E9E404775A8
:100723001A00751B01E50F9FFFE50E9EFE7C007D01
:1007330032120364AA06AB07E50875F00AA4FFC3E7
:10074300745E9FFD740195F0FCAF03AE0212037655
:10075300C374339FF52E7C007D0A120364EF2433A8
:10076300F50DE43EF50CE50875F00AA4FFC3E50FAB
:100773009FE50E95F05005E4F51AF51BD3E50F94AC
:100783005EE50E94014006752600752701C3E50F4B
:10079300945EE50E94015005E4F526F527E515FB77
:1007A3007A00753F00850840754100851C42852A03
:1007B30043852B44AD0FAC0EAF12AE1112042812B9
:1007C3000A3BAF1F7E00EF64017002D2CAEF4E7086
:1007D30004C2CAD2A3E51964017009751F017F32EF
:1007E300FE120F17E5197008F51F7F0AFE120F1787
:1007F300E51B6401451A7002D28CE51B451A70048F
:10080300C28CC2A2E515B50909E508650A700302A1
:1008130006957F007E2012103CAD157F017E2012CD
:100823000EF8AD087F027E20120EF87FC87E0012FC
:050833000F17020695FD
:03000B00020838B0
:10083800C0E0C0F0C083C082C0D075D000C000C086
:1008480001C002C003C004C005C006C007758CFC07
:10085800758A000517E51770020516E52745267005
:1008680076AF2EFEC3E52D9FE52C9E40067522002F
:10087800752301D3E52D9401E52C940050067522CB
:1008880000752300C3E5179525E5169524402475C2
:100898001600751700E523640145227008E52D153B
:1008A8002D7002152CE52345227008052DE52D70C5
:1008B80002052CAC16AD17120364AC24AD25120347
:1008C80076D3EF952DEE952C4002D2A2C3EF952D4D
:1008D800EE952C5002C2A2E52764014526703FD34D
:1008E800E5179420E5169403400675160075170061
:1008F800AC16AD17E41202AAE4FBFA79C8784312E1
:10090800022C60044002C2A2AC16AD17E41202AA7F
:10091800E4FBFA79C8784312022C5002D2A2D0071D
:10092800D006D005D004D003D002D001D000D0D05A
:09093800D082D083D0F0D0E0326F
:03002B00020CC400
:100CC400C0E0C0D075D000C006C007C2CF051EE585
:100CD4001E7002051DC39525E51D95244006751D4E
:100CE40000751E00AF1C7E00D3E51E9FE51D9E50BF
:100CF40002C2A3D3E51E9FE51D9E4002D2A3D007E6
:070D0400D006D0D0D0E03290
:100A3B00209016E4F513F5147F0AFE120F17209081
:100A4B0008052BE52B7002052AE52B6403452A705C
:100A5B0034209109751801740A251CF51CD3E51C6B
:100A6B00945A748094804003751C5A20920975180F
:100A7B000174F6251CF51CC3E51C940A7480948044
:100A8B005003751C0AE52B6402452A700A2091025B
:100A9B0005082092021508E52B6401452A700A20EF
:100AAB00910205152092021515E52B6404452A7059
:100ABB00122091067510017519012092067510010F
:100ACB00E4F519E52B6405452A7008209202F51808
:100ADB00E4F510E52B6406452A7009F52AF52BF58C
:050AEB00137514012247
:100F1700D3EF9400EE940040147D6E7C00ED1D70BD
:0D0F2700011CED4C70F7EF1F70E61E80E31B
:010F3400229A
:0B105E00EF1FAC0670011E4C70F62264
:0F104F00CDE200C4DA00B8DF00B5CD00D5BC009B
:100E9600025200000157000A4830313233343536E9
:030EA600373839A1
:100D6F00759850758921C2C8C2CB75CBFF75CDFF61
:100D7F0075CA0775CC07758DFDE4F58B758C4CF531
:100D8F008AD2ADD2A9D28ED2AFD2A8D288D2AC227B
:080003008F993099FDC299228A
:100FB600D2997BFF7A10794F120E5B3099FDC29958
:070FC6007F0A7E00020F17F5
:100FCD00D2997BFF7A107952120E5B3099FDC2993E
:070FDD007F0A7E00020F17DE
:100FE400D2997BFF7A107955120E5B3099FDC29924
:070FF4007F0A7E00020F17C7
:100FFB00D2997BFF7A107958120E5B3099FDC2990A
:07100B007F0A7E00020F17AF
:10101200D2997BFF7A10795B120E5B3099FDC299EF
:071022007F0A7E00020F1798
:040B7C00AB07AA0613
:100B80007C037DE81203767E007F64CFCDCFCECC90
:100B9000CE120376EF2430F5357C007D64AF03AED2
:100BA000021203767E007F0ACFCDCFCECCCE1203C9
:100BB00076EF2430F536AE02AF037C007D0A1203D7
:100BC00076ED2430F53775380AAF35120003AF36AD
:0D0BD000120003AF37120003AF380200031C
:030023000209418E
:10094100C0E0C0F0C083C082C0D075D000C000C07C
:0D09510001C002C003C004C005C006C007FD
:10095E0075580030984BC298742F2557F8A69905F4
:10096E0057E5576402703AF557AF58FE120B7C12DA
:10097E000FB6AF12AE11120B7C120FCDAF0FAE0E23
:10098E00120B7C120FE4AF087E00120B7C120FFBD1
:10099E00AF157E00120B7C121012AF1C7E00120BD4
:1009AE007C309902C299E52FC4540FF531E52F54CE
:1009BE000FF532E530C4540FF533E530540FF534EE
:1009CE00E53375F00AA4FDACF0E53275F064A42DA4
:1009DE00FFE5F03CFE7C00EF2534FFEC3EFEAD3132
:1009EE00ED640A70028F08ED640B4C70028F15EDEA
:1009FE00640C4C70028F1CED640D4C70048E248FB1
:100A0E0025ED640E4C7003751901ED640F4C7002E8
:020A1E00F519C8
:100A2000D007D006D005D004D003D002D001D0002A
:0B0A3000D0D0D082D083D0F0D0E032D4
:100F35004F3A20493A204C3A20483A20443A20205A
:0C0F450000303132333435363738390093
:030EA900015C00E9
:100C7B00C2A77F38120F6B7F0C120F6B7F06120F00
:100C8B006B7F01120F6B7F80120F6BE4F5397BFFCB
:100C9B007A0F793512000EC3E5399FE49E5015E5A6
:100CAB0039900F3593FF120EDF7F057E00120F1761
:090CBB00053980DA7FC0020F6BDD
:0C0428008E398F3A8C3B8D3C8A3D8B3E18
:10043400853F458540467C037DE81203767E007F38
:1004440064CFCDCFCECCCE1203768F59AE39AF3A2E
:100454007C007D641203767E007F0ACFCDCFCECCA4
:10046400CE1203768F5AAE39AF3A7C007D0A12035E
:10047400768D5BE4F547C3E547940374809480501C
:1004840016E54724C0FF120F6B120ED47F057E00C1
:10049400120F17054780DFAE3BAF3C7C037DE812AB
:1004A40003CB7E007F64CFCDCFCECCCE1203CB8FD7
:1004B40059AE3BAF3C7C007D641203CB7E007F0AC7
:1004C400CFCDCFCECCCE1203CB8F5AAE3BAF3C7C3C
:1004D400007D0A1203CB8D5BE4F547C3E547940323
:1004E400748094805016E54724C3FF120F6B120EDC
:1004F400D47F057E00120F17054780DFAE3DAF3E67
:100504007C037DE81203CB7E007F64CFCDCFCECCBD
:10051400CE1203CB8F59AE3DAF3E7C007D641203F7
:10052400CB7E007F0ACFCDCFCECCCE1203CB8F5A59
:10053400AE3DAF3E7C007D0A1203CB8D5BE4F547F4
:10054400C3E5479403748094805016E54724C6FF9E
:10055400120F6B120ED47F057E00120F1705478011
:10056400DFAE45AF467C037DE81203767E007F64F0
:10057400CFCDCFCECCCE1203768F59AE45AF467CCD
:10058400007D641203767E007F0ACFCDCFCECCCE21
:100594001203768F5AAE45AF467C007D0A1203766D
:1005A4008D5BE4F547C3E54794037480948050164B
:1005B400E54724C9FF120F6B120ED47F057E00128B
:1005C4000F17054780DFAE43AF447C007D0A12035A
:1005D400CB8C438D447FCC120F6B74462544F5823B
:1005E400740F3543F583E493FF120EDF7F057E001D
:1005F400120F17AE41AF427C007D641203CB7E0024
:100604007F0ACFCDCFCECCCE1203CB8F59AE41AF24
:10061400427C007D0A1203CB8D5AE4F547C3E547BB
:100624009402748094805016E54724CDFF120F6B1A
:0E063400120ED47F057E00120F17054780DFDF
:010642002295
:100F6B00C2A6C2A58F807F057E00120F17D2A77F66
:090F7B00057E00120F17C2A72227
:0B0ED40074592547F8E6900F4693FF85
:100EDF00D2A6C2A58F807F057E00120F17D2A77FE3
:090EEF00057E00120F17C2A722B4
:07102900C2AF8CE3EDF5E41A
:0C103000C2AF53E71843E70143E78022FA
:0B10690053E77FE4F5E5F5E6D2AF2287
:0810740075E64675E6B900229D
:040F5100AD07AC0636
:100F5500E4FF12102953E5F843E501121074AFE2DE
:050F6500121069D2AF7B
:010F6A002264
:100EF800AB07AA06C2AF8AE3EBF5E412103053E55C
:0F0F0800F843E5028DE2121074121069D2AF2285
:10103C00AD07AC0612102953E5F843E50312107402
:03104C0002106926
:100F8400C2A07F3C7E0012105ED2A07F087E0012B9
:090F9400105E7F287E0002105E51
:020D0B008F3E19
:100D0D00E4F53FC3E53F9408748094805021C2A060
:100D1D00E53E1392A07F067E0012105ED2A0E53E46
:0F0D2D00C313F53E7F017E0012105E053F80D498
:010D3C002294
:100D9F00E4F53FF53EC3E53E940874809480501C03
:100DAF00C2A000D2A0E53FC313F53F30A003433FDD
:0E0DBF00807F057E0012105E053E80D9AF3F9A
:010DCD002203
:100DCE00E4FFFEC2AF120F847FCC120D0B7F4412D4
:100DDE000D0B120F847FCC120D0B7FBE120D0B125A
:0E0DEE000D9F8F3D120D9FD2AFEFFEE53DFF32
:010DFC0022D4
:100BDD00120DCEC3EE9400500DEF1F70011E630772
:100BED00FF6306FF8000AD07AC06E41202AAE4FB2A
:100BFD00FA7980783D1201268F3C8E3B8D3A8C39E7
:100C0D00E4FFFE7DC87C42AB3CAA3BA93AA8391251
:0E0C1D000126E4FBFAF9783F1200351202E3DB
:010C2B0022A6
:100F9D00C2A17F3C7E0012105ED2A17F087E00129E
:090FAD00105E7F287E0002105E38
:020D3D008F3EE7
:100D3F00E4F53FC3E53F9408748094805021C2A12D
:100D4F00E53E1392A17F067E0012105ED2A1E53E12
:0F0D5F00C313F53E7F017E0012105E053F80D466
:010D6E002262
:100DFD00E4F53FF53EC3E53E940874809480501CA5
:100E0D00C2A100D2A1E53FC313F53F30A103433F7B
:0E0E1D00807F057E0012105E053E80D9AF3F3B
:010E2B0022A4
:100E2C00E4FFFEC2AF120F9D7FCC120D3D7F44122A
:100E3C000D3D120F9D7FCC120D3D7FBE120D3D124C
:0E0E4C000DFD8F3D120DFDD2AFEFFEE53DFF17
:010E5A002275
:100C2C00120E2CC3EE9400500DEF1F70011E6307C3
:100C3C00FF6306FF8000AD07AC06E41202AAE4FBDA
:100C4C00FA7980783D1201268F3C8E3B8D3A8C3997
:100C5C00E4FFFE7DC87C42AB3CAA3BA93AA8391202
:0E0C6C000126E4FBFAF9783F1200351202E38C
:010C7A002257
:10002E0002034FE86480F8E933E83360110460F0AE
:10003E00ED33EC337009E8FCE9FDEAFEEBFF220438
:10004E0060DED3EB9FEA9EE99DE8C2E78CF0C2F733
:10005E0095F0400CE8CCF8E9CDF9EACEFAEBCFFBFF
:10006E0012031A85D0F05804700320D5B3E804703B
:10007E00075002B2D502035992D5EC0460F7E4CCD6
:10008E00C0E0C398F8603B94186008400DD0E0FBC8
:10009E00020331E4FBFAC9FC8028E830E406E4C927
:1000AE00FBE4CAFCE830E305E4C9CACBFCE854071C
:1000BE006010F8C3E913F9EA13FAEB13FBEC13FC27
:1000CE00D8F130F52FC3E49CFCEF9BFFEE9AFEEDCA
:1000DE0099FDD0E0FBEF4E4D4C701222DB03020374
:1000EE0056EC2CFCEF33FFEE33FEED33FDED30E737
:1000FE00EB020331EF2BFFEE3AFEED39FDD0E0FBC4
:10010E0050130BBB0003020359ED13FDEE13FEEF6C
:08011E0013FFEC13FC02033196
:10012600EC4D6011E8497017ED33EC3304600DE4D3
:10013600FCFFFEFD22E933E8330470F802034F1298
:10014600031A58046009E4CC248150062850090299
:100156000359284003020356C0E0EB4A7044B980B5
:1001660006D0E0FB020345EF4E701CBD8008EBFF96
:10017600EAFEE9FD80EBE98DF0A4FEE5F002020F50
:10018600E9CDF9EAFEEBFFEF89F0A4FCE5F0CE89B4
:10019600F0A42EFFE435F0CD89F0A42DFEE435F071
:1001A6008067EF4E7005BD80D780C3EF8BF0A4AC9F
:1001B600F0EE8BF0A42CFCE435F0F8EF8AF0A42CDA
:1001C600E5F038FCE433CB8DF0A42CFCE5F03BF8ED
:1001D600EE8AF0A42CFCE5F038F8E433CF89F0A4DD
:1001E6002CFCE5F038CF3400CE89F0A42FFFE5F0E3
:1001F6003EFEE433C98DF0A42EFEE5F039CD8AF03B
:10020600A42FFFE5F03EFEE43DFD33D0E0FB5007B2
:100216000BBB000F020359EC2CFCEF33FFEE33FE51
:06022600ED33FD0203317F
:10022C0074F8CC6480CCC86480C8F58204604FC379
:10023C00EB9FF5F0EA9E42F0E99D42F0E89C45F018
:10024C00603C501DE5825FFFE582D313CB5BCBF4A2
:10025C002B5582FB50280ABA002409B900200880CB
:10026C001DE5825BFBE582D313CF5FCFF4C3132F65
:10027C005582FF50090EBE00050DBD00010CC3EBED
:10028C009FF5F0EA9E42F0E99D42F0E89C45F06053
:09029C0007CC4820E701B3EC2275
:1002A50075F020800E75F010800575F0087D007ED4
:1002B500007F003392D530D503120401EC33401092
:1002C500EF33FFEE33FEED33FDEC33FCD5F0ED22DD
:0E02D500E5F0247EA2D513CC92E7CDCEFF2219
:1002E300EDD2E7CD33EC3392D524814006E4FFFE13
:1002F300FDFC22FCE4CFCECDCC24E0501174FF8072
:10030300EDC3CC13CCCD13CDCE13CECF13CF04700E
:07031300F030D5DE02040109
:10031A00E9D2E7C933E833F892D5EDD2E7CD33EC29
:07032A0033FC5002B2D522A2
:10033100EC30E7100FBF000C0EBE00080DBD00042D
:100341000BEB6014A2D5EB13FCED92E7FD2274FFD9
:10035100FCFDFEFF22E480F8A2D574FF13FC7D8032
:03036100E480EF46
:03000000020AF001
:0C0AF000787FE4F6D8FD75815C020B37BE
:10036400EF8DF0A4A8F0CF8CF0A428CE8DF0A42EAD
:02037400FE2267
:10037600BC000BBE0029EF8DF084FFADF022E4CC6B
:10038600F875F008EF2FFFEE33FEEC33FCEE9DEC34
:10039600984005FCEE9DFE0FD5F0E9E4CEFD22ED7A
:1003A600F8F5F0EE8420D21CFEADF075F008EF2FC4
:1003B600FFED33FD4007985006D5F0F222C398FDB5
:0503C6000FD5F0EA2252
:1003CB00C2D5EC30E709B2D5E4C39DFDE49CFCEE4D
:1003DB0030E715B2D5E4C39FFFE49EFE120376C34C
:1003EB00E49DFDE49CFC800312037630D507C3E447
:0603FB009FFFE49EFE22BC
:0E040100C3E49FFFE49EFEE49DFDE49CFC220C
:100E5B0012040F601CFF09E970010AC0E0EAC0E050
:100E6B00EBC0E0120EADD0E0FBD0E0FAD0E0F980A1
:0A0E7B00DF7F0A120EADE4FEFF2235
:10000E00E4FFFE12040F600C0FEF70010E09E97091
:05001E00F20A80EF2250
:100AFC00020643E493A3F8E493A34003F68001F2C7
:100B0C0008DFF48029E493A3F85407240CC8C333FA
:100B1C00C4540F4420C8834004F456800146F6DFC9
:100B2C00E4800B0102040810204080900E85E47EC6
:100B3C00019360BCA3FF543F30E509541FFEE493BE
:100B4C00A360010ECF54C025E060A840B8E493A385
:100B5C00FAE493A3F8E493A3C8C582C8CAC583CAB0
:100B6C00F0A3C8C582C8CAC583CADFE9DEE780BE68
:010EAC000045
:10040F00BB010689828A83E0225002E722BBFE02EB
:09041F00E32289828A83E493221E
:100EAD00EFB40A07740D120EB8740A309811A89990
:100EBD00B8130CC2983098FDA899C298B811F630A5
:070ECD0099FDC299F599227D
:00000001FF
