:100E710002160000030900000002110000020E002A
:010E81000070
:10063100750C01750D90752400752508751C32E443
:10064100F52CF52DD2A07F0AFE120F03752E32E490
:10065100F51DF51E75081E75150FF52AF52B751F6D
:1006610001F519F510F518F513751401120CAE12F8
:100671000D5B7F017E20120F3D8F097F027E2012CC
:100681000F3D8F0A850915850A087FC87E00120F64
:1006910003120C107C007D0A1203648E118F12125A
:1006A1000C5F7C007D0A1203648E0E8F0FE51464CB
:1006B1000145136003020767E5187050E510704C9F
:1006C100E51575F00AA4FFAEF0D3E50F9FE50E9E88
:1006D100402CD3E50F9512E50E95114021751F01B0
:1006E100E50F9FFFE50E9EFE7C007D031203648FE4
:1006F1001CC3EF945A748094804003751C5AC3E55F
:100701000F9512E50E95115003E4F51FE50875F0FC
:100711000AA4FBAAF0D3E50F9BE50E9A4019751ABE
:1007210000751B01AE0EAF0F7C007D0A120364C37E
:10073100EF95082402F52EC3E50F9BE50E9A5005AF
:10074100E4F51AF51BD3E50F945EE50E940140061E
:10075100752600752701C3E50F945EE50E940150DF
:1007610005E4F526F527E515FB7A00753F008508B8
:1007710040754100851C42852A43852B44AD0FAC51
:100781000EAF12AE11120416120A1EAF1F7E00EF39
:1007910064017002D2CAEF4E7004C2CAD2A1E51937
:1007A10064017009751F017F32FE120F03E5197094
:1007B10008F51F7F0AFE120F03E51B6401451A703D
:1007C10002D28CE51B451A7004C28CC2A2E515B594
:1007D1000909E508650A70030206927F007E20126E
:1007E1001028AD157F017E20120EE4AD087F027E38
:0E07F10020120EE47FC87E00120F0302069253
:03000B00020912D5
:10091200C0E0C0F0C083C082C0D075D000C000C0AB
:1009220001C002C003C004C005C006C007758CFC2C
:10093200758A7B0517E51770020516E527452670AF
:1009420079C3E52D9484E52C940340067522007545
:100952002301D3E52D94C8E52C940050067522009E
:10096200752300C3E5179525E5169524402B7516CA
:1009720000751700E52364014522700CE52D952EC4
:10098200F52DE52C9400F52CE5234522700BE52E80
:10099200252DF52DE4352CF52CAE2CAF2D7C007DCC
:1009A20064120364D3E5179FE5169E4002C2A2C3F8
:1009B200E5179FE5169E5002D2A2E527640145265F
:1009C200703FD3E51794C2E51694014006751600F0
:1009D200751700AC16AD17E41202AAE4FBFA7961AE
:1009E200784312022C60044002C2A2AC16AD17E496
:1009F2001202AAE4FBFA7961784312022C5002D265
:100A0200A2D007D006D005D004D003D002D001D0A6
:0C0A120000D0D0D082D083D0F0D0E032F1
:03002B00020BC005
:100BC000C0E0C0F0C0D075D000C006C007C2CF05DD
:100BD0001EE51E7002051DC3950DE51D950C400612
:100BE000751D00751E00E51C75F004A4FFAEF0D362
:100BF000E51E9FE51D9E5002C2A1D3E51E9FE51D87
:100C00009E4002D2A1D007D006D0D0D0F0D0E032A2
:100A1E00209016E4F513F5147F0AFE120F032090B2
:100A2E0008052BE52B7002052AE52B6403452A7079
:100A3E0034209109751801740A251CF51CD3E51C88
:100A4E00945A748094804003751C5A20920975182C
:100A5E000174F6251CF51CC3E51C940A7480948061
:100A6E005003751C0AE52B6402452A700A20910278
:100A7E0005082092021508E52B6401452A700A200C
:100A8E00910205152092021515E52B6404452A7076
:100A9E00122091067510017519012092067510012C
:100AAE00E4F519E52B6405452A7008209202F51825
:100ABE00E4F510E52B6406452A7009F52AF52BF5A9
:050ACE00137514012264
:100F0300D3EF9400EE940040147D6E7C00ED1D70D1
:0D0F1300011CED4C70F7EF1F70E61E80E32F
:010F200022AE
:0B104A00EF1FAC0670011E4C70F62278
:0F103B00CDE200C4DA00B8DF00B5CD00D5BC00AF
:100E8200025200000157000A4830313233343536FD
:030E9200373839B5
:100D5B00759850758921C2C8C2CB75CBFF75CDFF75
:100D6B0075CA0775CC07758DFDE4F58B758C4CF545
:100D7B008AD2ADD2A9D28ED2AFD2A8D288D2AC228F
:080003008F993099FDC299228A
:100FA200D2997BFF7A10793B120E473099FDC29994
:070FB2007F0A7E00020F031D
:100FB900D2997BFF7A10793E120E473099FDC2997A
:070FC9007F0A7E00020F0306
:100FD000D2997BFF7A107941120E473099FDC29960
:070FE0007F0A7E00020F03EF
:100FE700D2997BFF7A107944120E473099FDC29946
:070FF7007F0A7E00020F03D8
:100FFE00D2997BFF7A107947120E473099FDC2992C
:07100E007F0A7E00020F03C0
:040B5F00AB07AA0630
:100B63007C037DE81203647E007F64CFCDCFCECCBF
:100B7300CE120364EF2430F5357C007D64AF03AE01
:100B8300021203647E007F0ACFCDCFCECCCE1203F8
:100B930064EF2430F536AE02AF037C007D0A120306
:100BA30064ED2430F53775380AAF35120003AF36DC
:0D0BB300120003AF37120003AF3802000339
:030023000207FFD2
:1007FF00C0E0C0F0C083C082C0D075D000C000C0C0
:0D080F0001C002C003C004C005C006C00740
:10081C0075580030984BC298742F2557F8A6990537
:10082C0057E5576402703AF557AF58FE120B5F123A
:10083C000FA2AF12AE11120B5F120FB9AF0FAE0EAB
:10084C00120B5F120FD0AF087E00120B5F120FE776
:10085C00AF157E00120B5F120FFEAF1C7E00120B49
:10086C005F309902C299E52FC4540FF531E52F542E
:10087C000FF532E530C4540FF533E530540FF53431
:10088C00E53375F00AA4FDACF0E53275F064A42DE7
:10089C00FFE5F03CFE7C00EF2534FFEC3EFEAD3175
:1008AC00ED640A70028F08ED640B4C70028F15ED2D
:1008BC00640C4C70057518018F1CED640D4C7004A4
:1008CC008E248F25ED640E4C700675100175190180
:1008DC00ED640F4C7005751001F519ED64094C7041
:0B08EC000ABE0307BFE704F510F51873
:1008F700D007D006D005D004D003D002D001D00055
:0B090700D0D0D082D083D0F0D0E032FE
:100F21004F3A20493A204C3A20483A20443A20206E
:0C0F3100003031323334353637383900A7
:030E9500015C00FD
:100CAE00C2A77F38120F577F0C120F577F06120FF5
:100CBE00577F01120F577F80120F57E4F5397BFFD4
:100CCE007A0F792112000EC3E5399FE49E5015E587
:100CDE0039900F2193FF120ECB7F057E00120F036A
:090CEE00053980DA7FC0020F57BE
:0C0416008E398F3A8C3B8D3C8A3D8B3E2A
:10042200853F458540467C037DE81203647E007F5C
:1004320064CFCDCFCECCCE1203648F59AE39AF3A52
:100442007C007D641203647E007F0ACFCDCFCECCC8
:10045200CE1203648F5AAE39AF3A7C007D0A120382
:10046200648D5BE4F547C3E5479403748094805040
:1004720016E54724C0FF120F57120EC07F057E00FB
:10048200120F03054780DFAE3BAF3C7C037DE812D1
:1004920003B97E007F64CFCDCFCECCCE1203B98F0D
:1004A20059AE3BAF3C7C007D641203B97E007F0AEB
:1004B200CFCDCFCECCCE1203B98F5AAE3BAF3C7C60
:1004C200007D0A1203B98D5BE4F547C3E547940347
:1004D200748094805016E54724C3FF120F57120E02
:1004E200C07F057E00120F03054780DFAE3DAF3EA1
:1004F2007C037DE81203B97E007F64CFCDCFCECCE2
:10050200CE1203B98F59AE3DAF3E7C007D6412031B
:10051200B97E007F0ACFCDCFCECCCE1203B98F5A8F
:10052200AE3DAF3E7C007D0A1203B98D5BE4F54718
:10053200C3E5479403748094805016E54724C6FFB0
:10054200120F57120EC07F057E00120F030547805F
:10055200DFAE45AF467C037DE81203647E007F6414
:10056200CFCDCFCECCCE1203648F59AE45AF467CF1
:10057200007D641203647E007F0ACFCDCFCECCCE45
:100582001203648F5AAE45AF467C007D0A120364A3
:100592008D5BE4F547C3E54794037480948050165D
:1005A200E54724C9FF120F57120EC07F057E0012C5
:1005B2000F03054780DFAE43AF447C007D0A120380
:1005C200B98C438D447FCC120F5774322544F58287
:1005D200740F3543F583E493FF120ECB7F057E0043
:1005E200120F03AE41AF427C007D641203B97E005C
:1005F2007F0ACFCDCFCECCCE1203B98F59AE41AF49
:10060200427C007D0A1203B98D5AE4F547C3E547DF
:100612009402748094805016E54724CDFF120F5740
:0E062200120EC07F057E00120F03054780DF19
:0106300022A7
:100F5700C2A6C2A58F807F057E00120F03D2A77F8E
:090F6700057E00120F03C2A7224F
:0B0EC00074592547F8E6900F3293FFAD
:100ECB00D2A6C2A58F807F057E00120F03D2A77F0B
:090EDB00057E00120F03C2A722DC
:07101500C2AF8CE3EDF5E42E
:0C101C00C2AF53E71843E70143E780220E
:0B10550053E77FE4F5E5F5E6D2AF229B
:0810600075E64675E6B90022B1
:040F3D00AD07AC064A
:100F4100E4FF12101553E5F843E501121060AFE21A
:050F5100121055D2AFA3
:010F56002278
:100EE400AB07AA06C2AF8AE3EBF5E412101C53E584
:0F0EF400F843E5028DE2121060121055D2AF22C2
:10102800AD07AC0612101553E5F843E5031210603E
:031038000210554E
:100F7000C2A47F3C7E0012104AD2A47F087E0012D9
:090F8000104A7F287E0002104A8D
:020CF7008F3E2E
:100CF900E4F53FC3E53F9408748094805021C2A471
:100D0900E53E1392A47F067E0012104AD2A4E53E66
:0F0D1900C313F53E7F017E0012104A053F80D4C0
:010D280022A8
:100D8B00E4F53FF53EC3E53E940874809480501C17
:100D9B00C2A400D2A4E53FC313F53F30A403433FE5
:0E0DAB00807F057E0012104A053E80D9AF3FC2
:010DB9002217
:100DBA00E4FFFEC2AF120F707FCC120CF77F441211
:100DCA000CF7120F707FCC120CF77FBE120CF712C1
:0E0DDA000D8B8F3D120D8BD2AFEFFEE53DFF6E
:010DE80022E8
:100C1000120DBAC3EE9400500DEF1F70011E630752
:100C2000FF6306FF8000AD07AC06E41202AAE4FBF6
:100C3000FA7980783D1201268F3C8E3B8D3A8C39B3
:100C4000E4FFFE7DC87C42AB3CAA3BA93AA839121E
:0E0C50000126E4FBFAF9783F1200351202E3A8
:010C5E002273
:100F8900C2A37F3C7E0012104AD2A37F087E0012C2
:090F9900104A7F287E0002104A74
:020D29008F3EFB
:100D2B00E4F53FC3E53F9408748094805021C2A33F
:100D3B00E53E1392A37F067E0012104AD2A3E53E36
:0F0D4B00C313F53E7F017E0012104A053F80D48E
:010D5A002276
:100DE900E4F53FF53EC3E53E940874809480501CB9
:100DF900C2A300D2A3E53FC313F53F30A303433F8A
:0E0E0900807F057E0012104A053E80D9AF3F63
:010E170022B8
:100E1800E4FFFEC2AF120F897FCC120D297F441266
:100E28000D29120F897FCC120D297FBE120D2912B0
:0E0E38000DE98F3D120DE9D2AFEFFEE53DFF53
:010E46002289
:100C5F00120E18C3EE9400500DEF1F70011E6307A4
:100C6F00FF6306FF8000AD07AC06E41202AAE4FBA7
:100C7F00FA7980783D1201268F3C8E3B8D3A8C3964
:100C8F00E4FFFE7DC87C42AB3CAA3BA93AA83912CF
:0E0C9F000126E4FBFAF9783F1200351202E359
:010CAD002224
:10002E0002034FE86480F8E933E83360110460F0AE
:10003E00ED33EC337009E8FCE9FDEAFEEBFF220438
:10004E0060DED3EB9FEA9EE99DE8C2E78CF0C2F733
:10005E0095F0400CE8CCF8E9CDF9EACEFAEBCFFBFF
:10006E0012031A85D0F05804700320D5B3E804703B
:10007E00075002B2D502035992D5EC0460F7E4CCD6
:10008E00C0E0C398F8603B94186008400DD0E0FBC8
:10009E00020331E4FBFAC9FC8028E830E406E4C927
:1000AE00FBE4CAFCE830E305E4C9CACBFCE854071C
:1000BE006010F8C3E913F9EA13FAEB13FBEC13FC27
:1000CE00D8F130F52FC3E49CFCEF9BFFEE9AFEEDCA
:1000DE0099FDD0E0FBEF4E4D4C701222DB03020374
:1000EE0056EC2CFCEF33FFEE33FEED33FDED30E737
:1000FE00EB020331EF2BFFEE3AFEED39FDD0E0FBC4
:10010E0050130BBB0003020359ED13FDEE13FEEF6C
:08011E0013FFEC13FC02033196
:10012600EC4D6011E8497017ED33EC3304600DE4D3
:10013600FCFFFEFD22E933E8330470F802034F1298
:10014600031A58046009E4CC248150062850090299
:100156000359284003020356C0E0EB4A7044B980B5
:1001660006D0E0FB020345EF4E701CBD8008EBFF96
:10017600EAFEE9FD80EBE98DF0A4FEE5F002020F50
:10018600E9CDF9EAFEEBFFEF89F0A4FCE5F0CE89B4
:10019600F0A42EFFE435F0CD89F0A42DFEE435F071
:1001A6008067EF4E7005BD80D780C3EF8BF0A4AC9F
:1001B600F0EE8BF0A42CFCE435F0F8EF8AF0A42CDA
:1001C600E5F038FCE433CB8DF0A42CFCE5F03BF8ED
:1001D600EE8AF0A42CFCE5F038F8E433CF89F0A4DD
:1001E6002CFCE5F038CF3400CE89F0A42FFFE5F0E3
:1001F6003EFEE433C98DF0A42EFEE5F039CD8AF03B
:10020600A42FFFE5F03EFEE43DFD33D0E0FB5007B2
:100216000BBB000F020359EC2CFCEF33FFEE33FE51
:06022600ED33FD0203317F
:10022C0074F8CC6480CCC86480C8F58204604FC379
:10023C00EB9FF5F0EA9E42F0E99D42F0E89C45F018
:10024C00603C501DE5825FFFE582D313CB5BCBF4A2
:10025C002B5582FB50280ABA002409B900200880CB
:10026C001DE5825BFBE582D313CF5FCFF4C3132F65
:10027C005582FF50090EBE00050DBD00010CC3EBED
:10028C009FF5F0EA9E42F0E99D42F0E89C45F06053
:09029C0007CC4820E701B3EC2275
:1002A50075F020800E75F010800575F0087D007ED4
:1002B500007F003392D530D5031203EFEC334010A5
:1002C500EF33FFEE33FEED33FDEC33FCD5F0ED22DD
:0E02D500E5F0247EA2D513CC92E7CDCEFF2219
:1002E300EDD2E7CD33EC3392D524814006E4FFFE13
:1002F300FDFC22FCE4CFCECDCC24E0501174FF8072
:10030300EDC3CC13CCCD13CDCE13CECF13CF04700E
:07031300F030D5DE0203EF1C
:10031A00E9D2E7C933E833F892D5EDD2E7CD33EC29
:07032A0033FC5002B2D522A2
:10033100EC30E7100FBF000C0EBE00080DBD00042D
:100341000BEB6014A2D5EB13FCED92E7FD2274FFD9
:10035100FCFDFEFF22E480F8A2D574FF13FC7D8032
:03036100E480EF46
:03000000020AD31E
:0C0AD300787FE4F6D8FD75815C020B1AF8
:10036400BC000BBE0029EF8DF084FFADF022E4CC7D
:10037400F875F008EF2FFFEE33FEEC33FCEE9DEC46
:10038400984005FCEE9DFE0FD5F0E9E4CEFD22ED8C
:10039400F8F5F0EE8420D21CFEADF075F008EF2FD6
:1003A400FFED33FD4007985006D5F0F222C398FDC7
:0503B4000FD5F0EA2264
:1003B900C2D5EC30E709B2D5E4C39DFDE49CFCEE5F
:1003C90030E715B2D5E4C39FFFE49EFE120364C370
:1003D900E49DFDE49CFC800312036430D507C3E46B
:0603E9009FFFE49EFE22CE
:0E03EF00C3E49FFFE49EFEE49DFDE49CFC221F
:100E47001203FD601CFF09E970010AC0E0EAC0E077
:100E5700EBC0E0120E99D0E0FBD0E0FAD0E0F980C9
:0A0E6700DF7F0A120E99E4FEFF225D
:10000E00E4FFFE1203FD600C0FEF70010E09E970A4
:05001E00F20A80EF2250
:100ADF00020631E493A3F8E493A34003F68001F2F6
:100AEF0008DFF48029E493A3F85407240CC8C33318
:100AFF00C4540F4420C8834004F456800146F6DFE7
:100B0F00E4800B0102040810204080900E71E47EF7
:100B1F00019360BCA3FF543F30E509541FFEE493DB
:100B2F00A360010ECF54C025E060A840B8E493A3A2
:100B3F00FAE493A3F8E493A3C8C582C8CAC583CACD
:100B4F00F0A3C8C582C8CAC583CADFE9DEE780BE85
:010E98000059
:1003FD00BB010689828A83E0225002E722BBFE02FE
:09040D00E32289828A83E4932230
:100E9900EFB40A07740D120EA4740A309811A899B8
:100EA900B8130CC2983098FDA899C298B811F630B9
:070EB90099FDC299F5992291
:00000001FF
