:100E580002160000030900000002110000020E0043
:010E68000089
:10063100750C01750D90752400752508751C32E443
:10064100F52CF52DD2A07F0AFE120EEA752E32E4AA
:10065100F51DF51E75081E75150FF52AF52B751F6D
:1006610001F519F510F518F513751401120C951211
:100671000D427F017E20120F248F097F027E2012FE
:100681000F248F0A850915850A087FC87E00120E7E
:10069100EA120BF77C007D0A1203648E118F12128D
:1006A1000C467C007D0A1203648E0E8F0FE51464E4
:1006B1000145136003020767E5187050E510704C9F
:1006C100E51575F00AA4FFAEF0D3E50F9FE50E9E88
:1006D100402CD3E50F9512E50E95114021751F01B0
:1006E100E50F9FFFE50E9EFE7C007D031203648FE4
:1006F1001CC3EF945A748094804003751C5AC3E55F
:100701000F9512E50E95115003E4F51FE50875F0FC
:100711000AA4FBAAF0D3E50F9BE50E9A4019751ABE
:1007210000751B01AE0EAF0F7C007D0A120364C37E
:10073100EF95082402F52EC3E50F9BE50E9A5005AF
:10074100E4F51AF51BD3E50F945EE50E940140061E
:10075100752600752701C3E50F945EE50E940150DF
:1007610005E4F526F527E515FB7A00753F008508B8
:1007710040754100851C42852A43852B44AD0FAC51
:100781000EAF12AE11120416120A05AF1F7E00EF52
:1007910064017002D2CAEF4E7004C2CAD2A1E51937
:1007A10064017009751F017F32FE120EEAE51970AE
:1007B10008F51F7F0AFE120EEAE51B6401451A7057
:1007C10002D28CE51B451A7004C28CC2A2E515B594
:1007D1000909E508650A70030206927F007E20126E
:1007E100100FAD157F017E20120ECBAD087F027E6A
:0E07F10020120ECB7FC87E00120EEA02069286
:03000B000207FFEA
:1007FF00C0E0C0F0C083C082C0D075D000C000C0C0
:10080F0001C002C003C004C005C006C007758CFC40
:10081F00758A7B0517E51770020516E527452670C3
:10082F0079C3E52D9484E52C940340067522007559
:10083F002301D3E52D94C8E52C94005006752200B2
:10084F00752300C3E5179525E5169524402B7516DE
:10085F0000751700E52364014522700CE52D952ED8
:10086F00F52DE52C9400F52CE5234522700BE52E94
:10087F00252DF52DE4352CF52CAE2CAF2D7C007DE0
:10088F0064120364D3E5179FE5169E4002C2A2C30C
:10089F00E5179FE5169E5002D2A2E5276401452673
:1008AF00703FD3E51794C2E5169401400675160004
:1008BF00751700AC16AD17E41202AAE4FBFA7961C2
:1008CF00784312022C60044002C2A2AC16AD17E4AA
:1008DF001202AAE4FBFA7961784312022C5002D279
:1008EF00A2D007D006D005D004D003D002D001D0BB
:0C08FF0000D0D0D082D083D0F0D0E03206
:03002B00020BA71E
:100BA700C0E0C0F0C0D075D000C006C007C2CF05F6
:100BB7001EE51E7002051DC3950DE51D950C40062B
:100BC700751D00751E00E51C75F004A4FFAEF0D37B
:100BD700E51E9FE51D9E5002C2A1D3E51E9FE51DA0
:100BE7009E4002D2A1D007D006D0D0D0F0D0E032BC
:100A0500209016E4F513F5147F0AFE120EEA2090E5
:100A150008052BE52B7002052AE52B6403452A7092
:100A250034209109751801740A251CF51CD3E51CA1
:100A3500945A748094804003751C5A209209751845
:100A45000174F6251CF51CC3E51C940A748094807A
:100A55005003751C0AE52B6402452A700A20910291
:100A650005082092021508E52B6401452A700A2025
:100A7500910205152092021515E52B6404452A708F
:100A85001220910675100175190120920675100145
:100A9500E4F519E52B6405452A7008209202F5183E
:100AA500E4F510E52B6406452A7009F52AF52BF5C2
:050AB50013751401227D
:100EEA00D3EF9400EE940040147D6E7C00ED1D70EB
:0D0EFA00011CED4C70F7EF1F70E61E80E349
:010F070022C7
:0B103100EF1FAC0670011E4C70F62291
:0F102200CDE200C4DA00B8DF00B5CD00D5BC00C8
:100E6900025200000157000A483031323334353616
:030E7900373839CE
:100D4200759850758921C2C8C2CB75CBFF75CDFF8E
:100D520075CA0775CC07758DFDE4F58B758C4CF55E
:100D62008AD2ADD2A9D28ED2AFD2A8D288D2AC22A8
:080003008F993099FDC299228A
:100F8900D2997BFF7A107922120E2E3099FDC299DF
:070F99007F0A7E00020EEA50
:100FA000D2997BFF7A107925120E2E3099FDC299C5
:070FB0007F0A7E00020EEA39
:100FB700D2997BFF7A107928120E2E3099FDC299AB
:070FC7007F0A7E00020EEA22
:100FCE00D2997BFF7A10792B120E2E3099FDC29991
:070FDE007F0A7E00020EEA0B
:100FE500D2997BFF7A10792E120E2E3099FDC29977
:070FF5007F0A7E00020EEAF4
:040B4600AB07AA0649
:100B4A007C037DE81203647E007F64CFCDCFCECCD8
:100B5A00CE120364EF2430F5357C007D64AF03AE1A
:100B6A00021203647E007F0ACFCDCFCECCCE120311
:100B7A0064EF2430F536AE02AF037C007D0A12031F
:100B8A0064ED2430F53775380AAF35120003AF36F5
:0D0B9A00120003AF37120003AF3802000352
:0300230002090BC4
:10090B00C0E0C0F0C083C082C0D075D000C000C0B2
:0D091B0001C002C003C004C005C006C00733
:1009280075580030984BC298742F2557F8A699052A
:1009380057E5576402703AF557AF58FE120B461246
:100948000F89AF12AE11120B46120FA0AF0FAE0EE9
:10095800120B46120FB7AF087E00120B46120FCECD
:10096800AF157E00120B46120FE5AF1C7E00120B6E
:1009780046309902C299E52FC4540FF531E52F543A
:100988000FF532E530C4540FF533E530540FF53424
:10099800E53375F00AA4FDACF0E53275F064A42DDA
:1009A800FFE5F03CFE7C00EF2534FFEC3EFEAD3168
:1009B800ED640A70028F08ED640B4C70028F15ED20
:1009C800640C4C70028F1CED640D4C70048E248FE7
:1009D80025ED640E4C7003751901ED640F4C70021F
:0209E800F519FF
:1009EA00D007D006D005D004D003D002D001D00061
:0B09FA00D0D0D082D083D0F0D0E0320B
:100F08004F3A20493A204C3A20483A20443A202087
:0C0F1800003031323334353637383900C0
:030E7C00015C0016
:100C9500C2A77F38120F3E7F0C120F3E7F06120F40
:100CA5003E7F01120F3E7F80120F3EE4F5397BFF38
:100CB5007A0F790812000EC3E5399FE49E5015E5B9
:100CC50039900F0893FF120EB27F057E00120EEACF
:090CD500053980DA7FC0020F3EF0
:0C0416008E398F3A8C3B8D3C8A3D8B3E2A
:10042200853F458540467C037DE81203647E007F5C
:1004320064CFCDCFCECCCE1203648F59AE39AF3A52
:100442007C007D641203647E007F0ACFCDCFCECCC8
:10045200CE1203648F5AAE39AF3A7C007D0A120382
:10046200648D5BE4F547C3E5479403748094805040
:1004720016E54724C0FF120F3E120EA77F057E002D
:10048200120EEA054780DFAE3BAF3C7C037DE812EB
:1004920003B97E007F64CFCDCFCECCCE1203B98F0D
:1004A20059AE3BAF3C7C007D641203B97E007F0AEB
:1004B200CFCDCFCECCCE1203B98F5AAE3BAF3C7C60
:1004C200007D0A1203B98D5BE4F547C3E547940347
:1004D200748094805016E54724C3FF120F3E120E1B
:1004E200A77F057E00120EEA054780DFAE3DAF3ED4
:1004F2007C037DE81203B97E007F64CFCDCFCECCE2
:10050200CE1203B98F59AE3DAF3E7C007D6412031B
:10051200B97E007F0ACFCDCFCECCCE1203B98F5A8F
:10052200AE3DAF3E7C007D0A1203B98D5BE4F54718
:10053200C3E5479403748094805016E54724C6FFB0
:10054200120F3E120EA77F057E00120EEA054780AB
:10055200DFAE45AF467C037DE81203647E007F6414
:10056200CFCDCFCECCCE1203648F59AE45AF467CF1
:10057200007D641203647E007F0ACFCDCFCECCCE45
:100582001203648F5AAE45AF467C007D0A120364A3
:100592008D5BE4F547C3E54794037480948050165D
:1005A200E54724C9FF120F3E120EA77F057E0012F7
:1005B2000EEA054780DFAE43AF447C007D0A12039A
:1005C200B98C438D447FCC120F3E74192544F582B9
:1005D200740F3543F583E493FF120EB27F057E005C
:1005E200120EEAAE41AF427C007D641203B97E0076
:1005F2007F0ACFCDCFCECCCE1203B98F59AE41AF49
:10060200427C007D0A1203B98D5AE4F547C3E547DF
:100612009402748094805016E54724CDFF120F3E59
:0E062200120EA77F057E00120EEA054780DF4C
:0106300022A7
:100F3E00C2A6C2A58F807F057E00120EEAD2A77FC1
:090F4E00057E00120EEAC2A72282
:0B0EA70074592547F8E6900F1993FFDF
:100EB200D2A6C2A58F807F057E00120EEAD2A77F3E
:090EC200057E00120EEAC2A7220F
:070FFC00C2AF8CE3EDF5E448
:0C100300C2AF53E71843E70143E7802227
:0B103C0053E77FE4F5E5F5E6D2AF22B4
:0810470075E64675E6B90022CA
:040F2400AD07AC0663
:100F2800E4FF120FFC53E5F843E501121047AFE266
:050F380012103CD2AFD5
:010F3D002291
:100ECB00AB07AA06C2AF8AE3EBF5E412100353E5B6
:0F0EDB00F843E5028DE212104712103CD2AF220D
:10100F00AD07AC06120FFC53E5F843E5031210478A
:03101F0002103C80
:100F5700C2A47F3C7E00121031D2A47F087E00120B
:090F670010317F287E00021031D8
:020CDE008F3E47
:100CE000E4F53FC3E53F9408748094805021C2A48A
:100CF000E53E1392A47F067E00121031D2A4E53E99
:0F0D0000C313F53E7F017E00121031053F80D4F2
:010D0F0022C1
:100D7200E4F53FF53EC3E53E940874809480501C30
:100D8200C2A400D2A4E53FC313F53F30A403433FFE
:0E0D9200807F057E00121031053E80D9AF3FF4
:010DA0002230
:100DA100E4FFFEC2AF120F577FCC120CDE7F44125C
:100DB1000CDE120F577FCC120CDE7FBE120CDE123E
:0E0DC1000D728F3D120D72D2AFEFFEE53DFFB9
:010DCF002201
:100BF700120DA1C3EE9400500DEF1F70011E630785
:100C0700FF6306FF8000AD07AC06E41202AAE4FB0F
:100C1700FA7980783D1201268F3C8E3B8D3A8C39CC
:100C2700E4FFFE7DC87C42AB3CAA3BA93AA8391237
:0E0C37000126E4FBFAF9783F1200351202E3C1
:010C4500228C
:100F7000C2A37F3C7E00121031D2A37F087E0012F4
:090F800010317F287E00021031BF
:020D10008F3E14
:100D1200E4F53FC3E53F9408748094805021C2A358
:100D2200E53E1392A37F067E00121031D2A3E53E68
:0F0D3200C313F53E7F017E00121031053F80D4C0
:010D4100228F
:100DD000E4F53FF53EC3E53E940874809480501CD2
:100DE000C2A300D2A3E53FC313F53F30A303433FA3
:0E0DF000807F057E00121031053E80D9AF3F96
:010DFE0022D2
:100DFF00E4FFFEC2AF120F707FCC120D107F4412B2
:100E0F000D10120F707FCC120D107FBE120D10122D
:0E0E1F000DD08F3D120DD0D2AFEFFEE53DFF9E
:010E2D0022A2
:100C4600120DFFC3EE9400500DEF1F70011E6307D7
:100C5600FF6306FF8000AD07AC06E41202AAE4FBC0
:100C6600FA7980783D1201268F3C8E3B8D3A8C397D
:100C7600E4FFFE7DC87C42AB3CAA3BA93AA83912E8
:0E0C86000126E4FBFAF9783F1200351202E372
:010C9400223D
:10002E0002034FE86480F8E933E83360110460F0AE
:10003E00ED33EC337009E8FCE9FDEAFEEBFF220438
:10004E0060DED3EB9FEA9EE99DE8C2E78CF0C2F733
:10005E0095F0400CE8CCF8E9CDF9EACEFAEBCFFBFF
:10006E0012031A85D0F05804700320D5B3E804703B
:10007E00075002B2D502035992D5EC0460F7E4CCD6
:10008E00C0E0C398F8603B94186008400DD0E0FBC8
:10009E00020331E4FBFAC9FC8028E830E406E4C927
:1000AE00FBE4CAFCE830E305E4C9CACBFCE854071C
:1000BE006010F8C3E913F9EA13FAEB13FBEC13FC27
:1000CE00D8F130F52FC3E49CFCEF9BFFEE9AFEEDCA
:1000DE0099FDD0E0FBEF4E4D4C701222DB03020374
:1000EE0056EC2CFCEF33FFEE33FEED33FDED30E737
:1000FE00EB020331EF2BFFEE3AFEED39FDD0E0FBC4
:10010E0050130BBB0003020359ED13FDEE13FEEF6C
:08011E0013FFEC13FC02033196
:10012600EC4D6011E8497017ED33EC3304600DE4D3
:10013600FCFFFEFD22E933E8330470F802034F1298
:10014600031A58046009E4CC248150062850090299
:100156000359284003020356C0E0EB4A7044B980B5
:1001660006D0E0FB020345EF4E701CBD8008EBFF96
:10017600EAFEE9FD80EBE98DF0A4FEE5F002020F50
:10018600E9CDF9EAFEEBFFEF89F0A4FCE5F0CE89B4
:10019600F0A42EFFE435F0CD89F0A42DFEE435F071
:1001A6008067EF4E7005BD80D780C3EF8BF0A4AC9F
:1001B600F0EE8BF0A42CFCE435F0F8EF8AF0A42CDA
:1001C600E5F038FCE433CB8DF0A42CFCE5F03BF8ED
:1001D600EE8AF0A42CFCE5F038F8E433CF89F0A4DD
:1001E6002CFCE5F038CF3400CE89F0A42FFFE5F0E3
:1001F6003EFEE433C98DF0A42EFEE5F039CD8AF03B
:10020600A42FFFE5F03EFEE43DFD33D0E0FB5007B2
:100216000BBB000F020359EC2CFCEF33FFEE33FE51
:06022600ED33FD0203317F
:10022C0074F8CC6480CCC86480C8F58204604FC379
:10023C00EB9FF5F0EA9E42F0E99D42F0E89C45F018
:10024C00603C501DE5825FFFE582D313CB5BCBF4A2
:10025C002B5582FB50280ABA002409B900200880CB
:10026C001DE5825BFBE582D313CF5FCFF4C3132F65
:10027C005582FF50090EBE00050DBD00010CC3EBED
:10028C009FF5F0EA9E42F0E99D42F0E89C45F06053
:09029C0007CC4820E701B3EC2275
:1002A50075F020800E75F010800575F0087D007ED4
:1002B500007F003392D530D5031203EFEC334010A5
:1002C500EF33FFEE33FEED33FDEC33FCD5F0ED22DD
:0E02D500E5F0247EA2D513CC92E7CDCEFF2219
:1002E300EDD2E7CD33EC3392D524814006E4FFFE13
:1002F300FDFC22FCE4CFCECDCC24E0501174FF8072
:10030300EDC3CC13CCCD13CDCE13CECF13CF04700E
:07031300F030D5DE0203EF1C
:10031A00E9D2E7C933E833F892D5EDD2E7CD33EC29
:07032A0033FC5002B2D522A2
:10033100EC30E7100FBF000C0EBE00080DBD00042D
:100341000BEB6014A2D5EB13FCED92E7FD2274FFD9
:10035100FCFDFEFF22E480F8A2D574FF13FC7D8032
:03036100E480EF46
:03000000020ABA37
:0C0ABA00787FE4F6D8FD75815C020B012A
:10036400BC000BBE0029EF8DF084FFADF022E4CC7D
:10037400F875F008EF2FFFEE33FEEC33FCEE9DEC46
:10038400984005FCEE9DFE0FD5F0E9E4CEFD22ED8C
:10039400F8F5F0EE8420D21CFEADF075F008EF2FD6
:1003A400FFED33FD4007985006D5F0F222C398FDC7
:0503B4000FD5F0EA2264
:1003B900C2D5EC30E709B2D5E4C39DFDE49CFCEE5F
:1003C90030E715B2D5E4C39FFFE49EFE120364C370
:1003D900E49DFDE49CFC800312036430D507C3E46B
:0603E9009FFFE49EFE22CE
:0E03EF00C3E49FFFE49EFEE49DFDE49CFC221F
:100E2E001203FD601CFF09E970010AC0E0EAC0E090
:100E3E00EBC0E0120E80D0E0FBD0E0FAD0E0F980FB
:0A0E4E00DF7F0A120E80E4FEFF228F
:10000E00E4FFFE1203FD600C0FEF70010E09E970A4
:05001E00F20A80EF2250
:100AC600020631E493A3F8E493A34003F68001F20F
:100AD60008DFF48029E493A3F85407240CC8C33331
:100AE600C4540F4420C8834004F456800146F6DF00
:100AF600E4800B0102040810204080900E58E47E2A
:100B0600019360BCA3FF543F30E509541FFEE493F4
:100B1600A360010ECF54C025E060A840B8E493A3BB
:100B2600FAE493A3F8E493A3C8C582C8CAC583CAE6
:100B3600F0A3C8C582C8CAC583CADFE9DEE780BE9E
:010E7F000072
:1003FD00BB010689828A83E0225002E722BBFE02FE
:09040D00E32289828A83E4932230
:100E8000EFB40A07740D120E8B740A309811A899EA
:100E9000B8130CC2983098FDA899C298B811F630D2
:070EA00099FDC299F59922AA
:00000001FF
